:020000041000EA
:1004000000940008830400100D00000051F3001058
:1004100000000000000000000000000000000000DC
:1004200000000000000000000000000039F3001090
:100430000000000000000000FDF2001001050010A7
:100440000105001011B10010010500100105001098
:10045000010500100105001001050010F1AF0010AA
:100460000105001001050010010500100105001034
:100470000105001001050010010500100105001024
:100480007047FFF7FDFF72B6164C174DAC4209DA04
:1004900021686268A368043B02DBC858D050FAE7C1
:1004A0000C34F3E7114B124CA34208DA19685A686E
:1004B0000020043A01DB8850FBE70833F4E70D48DD
:1004C0000D490860BFF34F8F0AF042FEEFF314802E
:1004D0000221084380F31488084880F309880EF04D
:1004E0008DF8FEE7200500108C0500108C0500102B
:1004F000E405001000AE010808ED00E0009C0008D3
:10050000FEE7FEE700B504207146084202D0EFF393
:10051000098001E0EFF30880043027F0E5FAFEE7F8
:100520000004001000AE01088000000060260310E7
:1005300080AE0108AC02000000260310001800087D
:100540000000000000260310009C000800000000CE
:100550000026031000BC00086000000060260310A5
:1005600000CC00080000000060260310009A01087B
:100570000000000060260310809F010800000000BA
:0C0580000C29031000F80208C004000061
:10058C002CB10108A83F0000009C0008E0110000FD
:10059C0000AE0008000E000060BC000880080000DF
:1005AC0000C500080007000000CC0008E0AD00000A
:1005BC00007A010800200000009A010820000000C9
:1005CC00809A010800050000809F0108800200004D
:0805DC0000A20108000C000060
:0805E40000000000000000000F
:1005EC0000000000000000000000000000000000FF
:1005FC0000000000000000000000000000000000EF
:1006200010B50A22002100F0EBF910BD10B50A2226
:10063000002100F0A5FA10BD10B5034B0A0001001F
:10064000186800F047F810BD54AF0108084B10B50A
:100650000400002B02D0002100E000BF054B186809
:10066000836A002B00D0984720002DF0ADFFC046D4
:1006700000000000C40B0010EC3000687047000060
:10068000044B1B681B6A002B00D1034BEC3318682A
:100690007047C04654AF0108B8AF010810B5034B0E
:1006A0000100186800F024F810BDC04654AF0108DE
:1006B00082B0002900D101A9101E06D0002B06D05F
:1006C00013780B601078431E984102B070470220E7
:1006D0004042FAE74A4370B51100140000F052F8A6
:1006E000051E03D02200002103F0E0F9280070BDB0
:1006F00070B50500002910D00C1F2368002B00DA0C
:10070000E418280000F05CFA1D4A1368002B05D19C
:1007100063601460280000F054FA70BDA34209D948
:10072000216860188342F3D118685B684118216022
:10073000EEE713005A68002A01D0A242F9D91968DD
:100740005818A0420BD12068091858181960824225
:10075000E0D110685268411819605A60DAE7A04287
:1007600002D90C232B60D5E721686018824203D19F
:10077000106852684118216062605C60CAE7C04638
:10078000ACEF0108032370B5CD1C9D43083506006E
:100790000C2D1ED20C25A9421DD8300000F010FAF5
:1007A000254A14682100002919D1244C2368002B04
:1007B00003D1300000F044F820602900300000F040
:1007C0003FF8431C2BD10C233000336000F0F9F9C3
:1007D00003E0002DDFDA0C233360002070BD0B68CE
:1007E0005B1B19D40B2B03D90B60CC18256003E0DD
:1007F0004B688C420DD11360300000F0E2F920000C
:1008000007220B30231D9043C31AE7D05A42E2500F
:10081000E4E763600C00EFE70C004968C3E70323DB
:10082000C41C9C43A042E1D0211A300000F008F81B
:10083000431CDBD1C7E7C046ACEF0108B0EF0108AD
:10084000002370B5064C0500080023602DF0AEFEB5
:10085000431C03D12368002B00D02B6070BDC04621
:10086000D0F00108C9B20378002B04D08B4200D12C
:1008700070470130F7E74B42594149420840F7E7DA
:1008800002780B78002A03D0013001319A42F7D068
:10089000D01A70470023C25C0133002AFBD1581ED6
:1008A000704730B50500002A00D130BD0C78013A00
:1008B0006B1C2C700131002C05D19A189A42F4D08F
:1008C0001C700133FAE71D00EDE710B50378002B2B
:1008D0000FD10B785A4253415B42184010BD0023A0
:1008E000CA5C002AFAD0C45C944201D10133F7E714
:1008F00001300378002BF2D11800EFE7F0B51F00AC
:100900000E0087B00590019102920C983478FFF7A1
:10091000B3FE082200194378751C134036D12D2CE4
:1009200036D1B51C74780126002F62D0102F09D162
:10093000302C07D120222B789343582B54D11027E9
:100940006C7802352D4B3900F3181800039301F031
:10095000DBFE049101210023494202008C4618006D
:100960002100303909291AD80C00A74223DD591C6F
:1009700009D06346824206D302D10499A14202DB28
:100980000123784320182C780135E9E72E00BCE7D5
:100990002B2C01D01E00C7E7B51C7478FAE72100A4
:1009A0004139192901D8373CDFE72100613919297C
:1009B00001D8573CD9E75A1C08D1059A2333136054
:1009C000029B0398002B09D107B0F0BD002E00D088
:1009D0004042029A002AF7D0002B01D06B1E0193EF
:1009E000029B019A1A60EFE73024002FAAD1082752
:1009F000A8E7302C9ED00A27A4E7C046FFFFFF7F60
:100A000037B51300064A05001068046A002C00D1AF
:100A1000044C0A0000942900FFF770FF3EBDC04659
:100A200054AF0108B8AF0108F0B51F000E008DB03B
:100A30000B900291039212983478FFF71DFE082262
:100A400000194378751C134053D12D2C53D1747861
:100A5000B51C01330193002F00D18AE0102F0AD179
:100A6000302C08D120222B789343582B00D07AE0E9
:100A700010276C780235019B002B41D1013B049378
:100A80003E4B05933A00FB1704980599089301F033
:100A90007FFE002309900E00002000210A92220010
:100AA000303A092A31D81400A7423DDD5A1C1DD026
:100AB000B14236D802D1099B984232D8099B834271
:100AC00006D18E4204D101230A9A5B42A2420DDB79
:100AD0000B0002000899380001F07AFEE317069433
:100AE0000793069B079CC018614101232C780135B0
:100AF000D5E72E009FE72B2CACD1B51C7478A9E765
:100B00000023049380231B06BBE72200413A192AE5
:100B100001D8373CC8E72200613A192A04D8573C6B
:100B2000C2E701235B42E1E75A1C09D10B9A233348
:100B30001360039B04980599002B0ED10DB0F0BDF6
:100B4000019A002A04D006000F0000217042B9412A
:100B5000039A002AF2D0002B01D06B1E0293039B54
:100B6000029A1A60EAE73024002F00D083E70827B2
:100B700081E7302C00D175E70A277CE7FFFFFF7F74
:100B800037B51300064A05001068046A002C00D12E
:100B9000044C0A0000942900FFF746FF03B030BD63
:100BA00054AF0108B8AF01080B1E04D0FF2A04D9C6
:100BB0008A2303608B3B180070470A700123FAE711
:100BC0007047704758AF01084300504F53495800D1
:100BD0002E00002020202020202020202828282827
:100BE00028202020202020202020202020202020FD
:100BF000202020881010101010101010101010104D
:100C0000101010040404040404040404041010105C
:100C10001010101041414141414101010101010108
:100C20000101010101010101010101010101101096
:100C300010101010424242424242020202020202DC
:100C40000202020202020202020202020202101068
:100C50001010200000000000000000000000000054
:100C60000000000000000000000000000000000084
:100C70000000000000000000000000000000000074
:100C80000000000000000000000000000000000064
:100C90000000000000000000000000000000000054
:100CA0000000000000000000000000000000000044
:100CB0000000000000000000000000000000000034
:100CC0000000000000000000000000000000000024
:100CD0000000000000000000080000000800000004
:100CE0000002000000000000000000000000000002
:100CF00000000000000000000000000000000000F4
:100D00000B0000003F000000000000003F0000005A
:100D1000000000000020704730B595B00C00039033
:100D2000242200210BA802F0C1FE0AAA0692282262
:100D3000079203AA0223089204220121802004942E
:100D40000A930992059302F089FF041E0FDD012327
:100D5000019304AB009306AA0223002102F080FF56
:100D60000500200002F088FF280015B030BD842562
:100D70006D42F9E730B58FB005002422002105A8A7
:100D800002F094FE032304AC049301212533802058
:100D9000E5800294039302F061FF041E0EDD002340
:100DA00002AA019300930021013302F059FF0500CC
:100DB000200002F061FF28000FB030BD84256D4295
:100DC000F9E7C046F0B595B007000E001500002108
:100DD00024220BA81C0002F069FE04230A930AAB2C
:100DE000049328230593103B07930121163B802091
:100DF0000294069708960995039302F02FFF041EAC
:100E00000FDD0123019302AB009304AA0323002109
:100E100002F026FF0500200002F02EFF280015B08A
:100E2000F0BD84256D42F9E730B58FB0050024226E
:100E3000002105A802F03AFE052304AC0493012129
:100E400023338020E5800294039302F007FF041E01
:100E50000EDD002302AA019300930021013302F06A
:100E6000FFFE0500200002F007FF28000FB030BD94
:100E700084256D42F9E7C04670B590B006AC060017
:100E80000D0028220021200002F010FE282301215D
:100E900003938020103BE68002940495059302F0B2
:100EA000DDFE041E0FDD0123019304AB009302AAB3
:100EB0000123002102F0D4FE0500200002F0DCFE38
:100EC000280010B070BD84256D42F9E7F0B5C64624
:100ED00000B590B007000E0015000021242207A8DD
:100EE000984602F0E3FD062306AC06930121223367
:100EF0008020E780029403930496059502F0AEFEED
:100F0000041E14DD0123019304AB009302AA012304
:100F1000002102F0A5FE4346059A05001A60200054
:100F200002F0AAFE280010B004BC9046F0BD842553
:100F30006D42F7E7F0B5C64600B590B007000E0069
:100F400015000021242207A8984602F0AFFD0723D0
:100F500006AC0693012121338020E780029403939D
:100F60000496059502F07AFE041E14DD0123019318
:100F700004AB009302AA0123002102F071FE434654
:100F8000059A05001A60200002F076FE280010B0D5
:100F900004BC9046F0BD84256D42F7E7F0B593B0F0
:100FA00007000E0015000021242209A802F07EFD92
:100FB0000823089320330593103B08AC07930121C5
:100FC000163B8020E780049406960295039302F076
:100FD00045FE041E0FDD0123019302AB009304AA1A
:100FE0000223002102F03CFE0500200002F044FE36
:100FF000280013B0F0BD84256D42F9E7F0B5C64670
:1010000000B592B004000F0016000021242209A8A8
:10101000984602F04BFD1D230893236808ADEB6052
:101020002823012103938020243B049402950593F7
:101030000697079602F012FE041E14DD02230193A8
:1010400004AB009302AA0123002102F009FE4346EB
:10105000079A05001A60200002F00EFE280012B068
:1010600004BC9046F0BD84256D42F7E7F0B593B01F
:1010700004000F0016000021242209A802F016FD2A
:101080001E230893236808ADEB60282301210593F4
:101090008020243B0294049506970796039302F060
:1010A000DDFD041E0FDD0123019302AB009304AAB2
:1010B0000223002102F0D4FD0500200002F0DCFD37
:1010C000280013B0F0BD84256D42F9E7F0B591B06A
:1010D00005000F0016000021242207A802F0E6FCFC
:1010E0001B2306932B6806ACE3602823012103939E
:1010F0008020243BE780A66002940495059302F0CB
:10110000ADFD041E0FDD0123019304AB009302AA81
:101110000123002102F0A4FD0500200002F0ACFD37
:10112000280011B0F0BD84256D42F9E7F0B591B00B
:1011300005000F0016000021242207A802F0B6FCCB
:101140001C2306932B6806ACE3602823012103933C
:101150008020243BE780A66002940495059302F06A
:101160007DFD041E0FDD0123019304AB009302AA51
:101170000123002102F074FD0500200002F07CFD37
:10118000280011B0F0BD84256D42F9E7F0B5C646E0
:1011900000B594B0040088461700002124220BA853
:1011A0001E0002F083FC1F230A9323680AADEB6044
:1011B0002823039343460493042307931A9B012196
:1011C00080200694029505970896099302F046FD43
:1011D000041E14DD0223019306AB009302AA02232E
:1011E000002102F03DFD099A1B9B05001A602000BA
:1011F00002F042FD280014B004BC9046F0BD8425E6
:101200006D42F7E730B591B004002422002107A811
:1012100002F04CFC21230693236806ADEB602823E3
:10122000012103938020243B04940295059302F04E
:1012300015FD041E0FDD0123019304AB009302AAE8
:101240000123002102F00CFD0500200002F014FD36
:10125000280011B030BD84256D42F9E7F0B5C646CF
:1012600000B592B004000F0016000021242209A846
:10127000984602F01BFC20230893236808ADEB601E
:101280002823012103938020243B04940295059395
:101290000697079602F0E2FC041E14DD0223019378
:1012A00004AB009302AA0123002102F0D9FC4346BB
:1012B000079A05001A60200002F0DEFC280012B038
:1012C00004BC9046F0BD84256D42F7E770B590B040
:1012D00005000E002422002107A802F0E7FB0B23E3
:1012E00006932B6806ACE36028230121039380203A
:1012F000243BA66002940495059302F0AFFC041E03
:101300000FDD0123019304AB009302AA0123002106
:1013100002F0A6FC0500200002F0AEFC280010B090
:1013200070BD84256D42F9E7F0B593B004000F005D
:1013300016000021242209A802F0B8FB0C23089310
:10134000236808ADEB602823012105938020243B0E
:101350000294049506970796039302F07FFC041EFF
:101360000FDD0123019302AB009304AA02230021A5
:1013700002F076FC0500200002F07EFC280013B08D
:10138000F0BD84256D42F9E7F0B5C64600B592B0D0
:1013900004000F0016000021242209A8984602F03C
:1013A00085FB0D230893236808ADEB6028230121FA
:1013B00003938020243B0494029505930697079697
:1013C00002F04CFC041E14DD0223019304AB0093D5
:1013D00002AA0123002102F043FC4346079A0500BC
:1013E0001A60200002F048FC280012B004BC9046AD
:1013F000F0BD84256D42F7E7F0B593B004000F000F
:1014000016000021242209A802F050FB0E230893A5
:10141000236808ADEB602823012105938020243B3D
:101420000294049506970796039302F017FC041E96
:101430000FDD0123019302AB009304AA02230021D4
:1014400002F00EFC0500200002F016FC280013B08C
:10145000F0BD84256D42F9E730B591B00400242237
:10146000002107A802F022FB0F230693236806AD94
:10147000EB602823012103938020243B04940295F0
:10148000059302F0EBFB041E0FDD0123019304AB77
:10149000009302AA0123002102F0E2FB05002000D4
:1014A00002F0EAFB280011B030BD84256D42F9E757
:1014B00070B590B006000C002422002107A802F0AD
:1014C000F5FA10230693336806ADEB6028230393E7
:1014D000243B029504940593002C02D02368002B32
:1014E00018D10121802002F0B9FB041E0FDD012379
:1014F000019304AB009302AA0123002102F0B0FB88
:101500000500200002F0B8FB280010B070BD842553
:101510006D42F9E789256D42F6E7C046F0B5C6464B
:1015200000B592B080460F0016000021242209A8C1
:101530001D0002F0BBFA09230893434608ACA360E0
:1015400028230593189B0121802004940697079671
:101550000295039302F082FB041E14DD0123019324
:1015600002AB009304AA0223002102F079FB039A44
:10157000199B05001A60200002F07EFB280012B0C3
:1015800004BC9046F0BD84256D42F7E7F0B5C64631
:1015900000B592B080460F0016000021242209A851
:1015A0001D0002F083FA0A230893434608ACA360A7
:1015B00028230393189B0121802002940497059609
:1015C0000695079302F04AFB041E10DD002302AAD1
:1015D000019300930021033302F042FB0500200039
:1015E00002F04AFB280012B004BC9046F0BD8425EE
:1015F0006D42F7E7F0B591B005000F00160000212D
:10160000242207A802F052FA132306932B6806AC93
:10161000E3602823012103938020243BE780A66018
:1016200002940495059302F019FB041E0FDD0123BB
:10163000019304AB009302AA0123002102F010FBE6
:101640000500200002F018FB280011B0F0BD842531
:101650006D42F9E7F0B591B005000F0016000021CA
:10166000242207A802F022FA142306932B6806AC62
:10167000E3602823012103938020243BE780A660B8
:1016800002940495059302F0E9FA041E0FDD01238C
:10169000019304AB009302AA0123002102F0E0FAB7
:1016A0000500200002F0E8FA280011B0F0BD842502
:1016B0006D42F9E7F0B593B004000F001600002169
:1016C000242209A802F0F2F915230893236808AD33
:1016D000EB602823012105938020243B029404958C
:1016E00006970796039302F0B9FA041E0FDD012353
:1016F000019302AB009304AA0223002102F0B0FA86
:101700000500200002F0B8FA280013B0F0BD8425CF
:101710006D42F9E7F0B5C64600B592B004000F007F
:1017200016000021242209A8984602F0BFF91623CA
:101730000893236808ADEB602823012103938020E0
:10174000243B0494029505930697079602F086FAC7
:10175000041E14DD0223019304AB009302AA0123AB
:10176000002102F07DFA4346079A05001A60200026
:1017700002F082FA280012B004BC9046F0BD842525
:101780006D42F7E7F0B593B004000F00160000219A
:10179000242209A802F08AF917230893236808ADC8
:1017A000EB602823012105938020243B02940495BB
:1017B00006970796039302F051FA041E0FDD0123EA
:1017C000019302AB009304AA0223002102F048FA1D
:1017D0000500200002F050FA280013B0F0BD842567
:1017E0006D42F9E730B591B004002422002107A82A
:1017F00002F05CF918230693236806ADEB602823FA
:10180000012103938020243B04940295059302F068
:1018100025FA041E0FDD0123019304AB009302AAF5
:101820000123002102F01CFA0500200002F024FA36
:10183000280011B030BD84256D42F9E7F0B5CE46E1
:1018400000B594B081460C001700002120220BA89F
:101850001E0002F02BF922230A934B460AADEB80BF
:101860001A9BAC606E62002B58D0282305931C9BFA
:10187000049506931D9B07931A9B08931B9B099342
:101880001E9B02931F9B0393102E4AD8002F27D034
:10189000002E25D0BB0747D1082E45D93A68B3089A
:1018A0000F927A681092022B05D0BA681192042B1D
:1018B00001D1FB681293032332009A43130096422E
:1018C0000ED0F95CAA1811755A1C964208D9A918AD
:1018D000BA5C02330A759E4202D9ED18FB5C2B7587
:1018E0000121802002F0BAF9051E60DD1A9B012259
:1018F0005C1EA341019202AA02330092002104AAB5
:1019000002F0AEF9039A209B04001A60280002F04E
:10191000B3F9200014B004BC9146F0BD1B9B002B12
:10192000A3D087246442F4E73B782B75012ED7D0EF
:101930007B786B75022ED3D0BB78AB75032ECFD0DE
:10194000FB78EB75042ECBD03B792B76052EC7D0D8
:101950007B796B76062EC3D0BB79AB76072EBFD0D2
:10196000FB79EB76082EBBD93B7A2B77092EB7D9BA
:101970007B7A6B770A2EB3D0BB7AAB770B2EAFD0C6
:10198000FB7AEB770C2EABD020233A7BEA540D2E5A
:10199000A6D07A7B0133EA540E2EA1D0BA7B013354
:1019A000EA54102E9CD1FA7B0133EA5498E7842440
:1019B0006442AEE7F0B5CE4600B594B081460C0067
:1019C0001700002120220BA81E0002F06FF823232D
:1019D0000A934B460AADEB801A9BAC606E62002BFB
:1019E00058D0282305931C9B049506931D9B0793B1
:1019F0001A9B08931B9B09931E9B02931F9B0393A7
:101A0000102E4AD8002F27D0002E25D0BB0747D153
:101A1000082E45D93A68B3080F927A681092022BC3
:101A200005D0BA681192042B01D1FB6812930323ED
:101A300032009A43130096420ED0F95CAA18117531
:101A40005A1C964208D9A918BA5C02330A759E42FC
:101A500002D9ED18FB5C2B750121802002F0FEF805
:101A6000051E60DD1A9B01225C1EA341019202AAA1
:101A700002330092002104AA02F0F2F8039A209B9C
:101A800004001A60280002F0F7F8200014B004BC2B
:101A90009146F0BD1B9B002BA3D087246442F4E742
:101AA0003B782B75012ED7D07B786B75022ED3D067
:101AB000BB78AB75032ECFD0FB78EB75042ECBD063
:101AC0003B792B76052EC7D07B796B76062EC3D05B
:101AD000BB79AB76072EBFD0FB79EB76082EBBD94E
:101AE0003B7A2B77092EB7D97B7A6B770A2EB3D046
:101AF000BB7AAB770B2EAFD0FB7AEB770C2EABD04B
:101B000020233A7BEA540D2EA6D07A7B0133EA5487
:101B10000E2EA1D0BA7B0133EA54102E9CD1FA7B51
:101B20000133EA5498E784246442AEE7F0B5C64630
:101B300000B592B080460F0016000021242209A8AB
:101B40001D0001F0B3FF2E230893434608ACE38049
:101B500028230593189B01210293199B8020A760DD
:101B6000049406960795039302F078F8041E14DD9A
:101B70000123019302AB009304AA0223002102F087
:101B80006FF8039A1A9B05001A60200002F074F89F
:101B9000280012B004BC9046F0BD84256D42F7E7E2
:101BA000F0B5C64600B592B080460F001600002181
:101BB000242209A81D0001F079FF2E230893434633
:101BC00008ACE38028230593189B01210293199BFD
:101BD0008020A760049406960795039302F03EF8D0
:101BE000041E14DD0123019302AB009304AA022317
:101BF000002102F035F8039A1A9B05001A602000B4
:101C000002F03AF8280012B004BC9046F0BD8425DA
:101C10006D42F7E7F0B5C64600B592B080460F00BA
:101C200016000021242209A81D0001F03FFF2F23E8
:101C30000893434608ACE38028230393189B0121B3
:101C40000693199B8020A76002940496059507933C
:101C500002F004F8041E10DD002302AA0193009391
:101C60000021033301F0FCFF0500200002F004F81E
:101C7000280012B004BC9046F0BD84256D42F7E701
:101C8000F0B5C64600B592B080460F0016000021A0
:101C9000242209A81D0001F009FF2F2308934346C1
:101CA00008ACE38028230393189B01210693199B1A
:101CB0008020A760029404960595079301F0CEFF5B
:101CC000041E10DD002302AA0193009300210333B8
:101CD00001F0C6FF0500200001F0CEFF280012B081
:101CE00004BC9046F0BD84256D42F7E7F0B595B091
:101CF00005000C001700002124220BA81E0001F093
:101D0000D5FE30230A936B46DD851A9B0C94002B7D
:101D100028D00AAB0493282304AC63601A9BE660C6
:101D200023611B9B02AE63611C9BA76002931D9BFA
:101D300001217360802001F091FF0323051E2BDD3C
:101D400001220096019200212200280001F088FF64
:101D500072681E9B04001A60280001F08DFF2000AD
:101D600015B0F0BD1B9B002B19D10AAB049328239F
:101D700004AC63601B9BE660236163611C9B02AE45
:101D800002931D9BA76073600121802001F066FF14
:101D9000051E01DD0223D3E784246442DFE78724A4
:101DA0006442DCE7F0B595B005000C001700002197
:101DB00024220BA81E0001F079FE31230A936B4602
:101DC000DD851A9B0C94002B28D00AAB04932823A2
:101DD00004AC63601A9BE66023611B9B02AE6361E7
:101DE0001C9BA76002931D9B01217360802001F062
:101DF00035FF0323051E2BDD0122009601920021F1
:101E00002200280001F02CFF72681E9B04001A605B
:101E1000280001F031FF200015B0F0BD1B9B002B06
:101E200019D10AAB0493282304AC63601B9BE660C2
:101E3000236163611C9B02AE02931D9BA7607360CC
:101E40000121802001F00AFF051E01DD0223D3E7F6
:101E500084246442DFE787246442DCE770B590B0F5
:101E600006000D002422002107A801F01FFE3323E5
:101E70000693336806ACE360282301210393802096
:101E8000243B02940495059301F0E8FE041E0FDD47
:101E90000123019304AB009302AA0123002101F066
:101EA000DFFE0500200001F0E7FE280010B070BD45
:101EB00084256D42F9E7C046F0B591B007000E00E9
:101EC00015000021242207A801F0F0FD3823069315
:101ED0003B6806ACE3602823012180200294039331
:101EE0000496059501F0BAFE041E0FDD012301934F
:101EF00004AB009302AA0123002101F0B1FE05000A
:101F0000200001F0B9FE280011B0F0BD84256D421B
:101F1000F9E7C046F0B58FB005000F0016000021AC
:101F2000202206A801F0C2FD362304932B6804ACDE
:101F3000E360282301218020A780E6800294039398
:101F400001F08CFE041E0EDD002302AA0193009313
:101F50000021013301F084FE0500200001F08CFE19
:101F600028000FB0F0BD84256D42F9E730B591B07F
:101F700004002422002107A801F098FD3A230693CB
:101F8000236806ADEB602823012103938020243BC6
:101F900004940295059301F061FE041E0FDD0123F8
:101FA000019304AB009302AA0123002101F058FE23
:101FB0000500200001F060FE280011B030BD84252E
:101FC0006D42F9E7F0B5C64600B592B00500884607
:101FD0001700002120220AA81E0001F067FD372308
:101FE0000893434608ACA3802B680121E3602823B3
:101FF0000593189B802007930423E780049406969A
:102000000295039301F02AFE041E11DD01230193C2
:1020100002AB009304AA0223002101F021FE050077
:10202000200001F029FE280012B004BC9046F0BD4B
:1020300084256D42F7E7C04630B591B005000C002D
:102040002422002107A801F031FD3C23069306ABB2
:10205000029328230495039305940025002C02D1B4
:10206000280011B030BD0121802001F0F7FD041ED1
:102070000DDD0123019304AB009302AA012300218B
:1020800001F0EEFD0500200001F0F6FDE8E78425F3
:102090006D42E5E730B593B00C0005002422002125
:1020A00009A801F003FD3D23089308AB04932823FE
:1020B0000593103B07930121163B8020029406955F
:1020C000039301F0CBFD041E0FDD0123019302AB4E
:1020D000009304AA0223002101F0C2FD05002000A4
:1020E00001F0CAFD280013B030BD84256D42F9E728
:1020F000862040427047C046862040427047C04616
:10210000862040427047C046862040427047C04605
:10211000862040427047C046862040427047C046F5
:10212000862040427047C046862040427047C046E5
:10213000862040427047C046862040427047C046D5
:10214000F0B5C64600B592B00700884616000021DB
:10215000242209A81D0001F0A9FC3B230893434653
:1021600008ACE38028230593189B01210293199B57
:102170008020A760049406960795039301F06EFDF6
:10218000041E14DD0123019302AB009304AA022371
:10219000002101F065FD039A1A9B05001A602000DA
:1021A00001F06AFD280012B004BC9046F0BD842501
:1021B0006D42F7E770B590B005000E0024220021B3
:1021C00007A801F073FC322306932B6806ACE3608A
:1021D0002823012103938020243BA66002940495C8
:1021E000059301F03BFD041E0FDD0123019304ABB9
:1021F000009302AA0123002101F032FD0500200016
:1022000001F03AFD280010B070BD84256D42F9E759
:1022100070B58EB006000D002422002105A801F043
:1022200045FC34230493336804ACE3602823012184
:10223000802025610294039301F010FD041E0EDD41
:10224000002302AA019300930021013301F008FD4D
:102250000500200001F010FD28000EB070BD84259F
:102260006D42F9E7F0B5C64607001E2000B590B0F4
:10227000884616000021222268441D0001F016FC49
:1022800035230693434606ACA3803B680121E360F7
:1022900028238020029403930496059501F0DEFC28
:1022A000041E10DD002302AA0193009300210233D3
:1022B00001F0D6FC0500200001F0DEFC280010B083
:1022C00004BC9046F0BD84256D42F7E7F0B593B0AD
:1022D00006000F0015000021242209A801F0E6FBEA
:1022E000392308933B6808ACE36028230593103B2F
:1022F00007930121163B80200494069602950393D0
:1023000001F0ACFC041E0FDD0123019302AB00932E
:1023100004AA0223002101F0A3FC0500200001F023
:10232000ABFC280013B0F0BD84256D42F9E7C04630
:10233000862040427047C046862040427047C046D3
:10234000862040427047C046862040427047C046C3
:10235000862040427047C046862040427047C046B3
:1023600030B58BB00290039102A904910693082125
:102370000EAB089304230591702007390792099347
:1023800001F06CFC041E10DD002304AA01930093ED
:102390000021033301F064FC0500200001F06CFC17
:1023A000032D05D028000BB030BD84256D42F9E720
:1023B00087256D42F6E7C04670B58CB0039204AA3B
:1023C00008920822099203AA0A920422119E0B92F3
:1023D000109A0490059106920793002E19D00121BE
:1023E000712001F03BFC041E16DD0123019306ABB6
:1023F000009308AA0223002101F032FC050020000E
:1024000001F03AFC032D04D0079B336028000CB088
:1024100070BD87256D42F9E784256D42F6E7C04619
:1024200030B589B002AB0493082302900391059361
:102430000121043372200692079301F00FFC041E61
:1024400011DD0123019306AB009304AA01230021AF
:1024500001F006FC0500200001F00EFC032D05D064
:10246000280009B030BD84256D42F9E787256D420B
:10247000F6E7C04630B587B002AB0493082302905C
:10248000039101217320059301F0E8FB041E0EDD8A
:10249000002304AA019300930021013301F0E0FB23
:1024A0000500200001F0E8FB280007B030BD8425BE
:1024B0006D42F9E730B5012183B0402001F0CEFB39
:1024C000051E0EDD0023002201930093002101F080
:1024D000C7FB0400280001F0CFFB002C01DB20002B
:1024E00000E0012003B030BD70B58AB005AB0693A3
:1024F0000423140005900793002920D002260B68BE
:1025000008934B68039309930121412001F0A6FB36
:10251000051E11DD23005A1E93410094019306AA63
:102520003300002101F09CFB0400280001F0A4FB13
:10253000002C01DB200000E001200AB070BD012664
:10254000E2E7C04630B587B003AB049304230390A1
:1025500001214220059301F081FB051E0FDD0023C0
:1025600004AA019300930749013301F079FB0400A9
:10257000280001F081FB002C01DB200000E001209D
:1025800007B030BDF303000030B589B003AB04934E
:10259000042303900791422001210593069201F044
:1025A0005DFB051E10DD0123019306AB009304AA19
:1025B0000123074901F054FB0400280001F05CFBF3
:1025C000002C01DB200000E0012009B030BDC04636
:1025D000F203000002B4714649084900095C490051
:1025E0008E4402BC7047C04603B47146490840009F
:1025F0004900095A49008E4403BC70470022430831
:102600008B4274D303098B425FD3030A8B4244D3BA
:10261000030B8B4228D3030C8B420DD3FF220902FC
:1026200012BA030C8B4202D31212090265D0030BBB
:102630008B4219D300E0090AC30B8B4201D3CB03B1
:10264000C01A5241830B8B4201D38B03C01A5241F3
:10265000430B8B4201D34B03C01A5241030B8B42F5
:1026600001D30B03C01A5241C30A8B4201D3CB02E0
:10267000C01A5241830A8B4201D38B02C01A5241C5
:10268000430A8B4201D34B02C01A5241030A8B42C8
:1026900001D30B02C01A5241CDD2C3098B4201D3E0
:1026A000CB01C01A524183098B4201D38B01C01A5E
:1026B000524143098B4201D34B01C01A52410309D5
:1026C0008B4201D30B01C01A5241C3088B4201D384
:1026D000CB00C01A524183088B4201D38B00C01A31
:1026E000524143088B4201D34B00C01A5241411A58
:1026F00000D20146524110467047FFE701B5002065
:1027000000F006F802BDC0460029F7D076E7704712
:102710007047C0468446101C62468C46191C6346AE
:1027200000E0C0461FB500F0FFFC002801D40021E6
:10273000C8421FBD10B500F057FC4042013010BD2B
:1027400010B500F0F1FC002801DB002010BD0120D5
:1027500010BDC04610B500F0E7FC002801DD0020E8
:1027600010BD012010BDC04610B500F079FC002856
:1027700001DC002010BD012010BDC04610B500F0E6
:102780006FFC002801DA002010BD012010BDC046FA
:10279000002B11D1002A0FD1002900D1002802D02E
:1027A0000021C943081C07B4024802A14018029046
:1027B00003BDC0465DFFFFFF03B4684601B5029844
:1027C00000F04EF8019B9E4602B00CBC7047C0461C
:1027D000F0B5CE46474615042D0C2E0080B50704F3
:1027E000140C3F0C9946030C7E435D4367436343DF
:1027F0007F19340CE4199C46A54203D980235B025F
:102800009846C4444B4643435143250C3604654423
:10281000360C2404A4195B19591820000CBC9046EE
:102820009946F0BD70B500220C4B04000D00FFF777
:10283000A5FF002804D12000290001F025F870BD73
:10284000064B00222000290000F0D6FC01F01CF805
:1028500080231B069C466044F1E7C0460000E0412F
:10286000F0B54F464646D646C0B5040082B00D00CE
:10287000914698468B422FD82CD04146484601F0CD
:1028800091F829000600200001F08CF8331A9C46CC
:10289000203B9A4600D576E04B46524693401F00B7
:1028A0004B46624693401E00AF4228D825D053467F
:1028B000A41BBD41002B00DA7BE000220023009224
:1028C00001930123524693400193012362469340B2
:1028D000009318E08242D0D9002200230092019395
:1028E0000A9B002B01D01C605D600098019902B02A
:1028F0001CBC90469946A246F0BDA342D7D90022FF
:102900000023009201936346002BE9D0FB07984611
:10291000414672080A437B0866460EE0AB4201D18D
:10292000A2420CD8A41A9D41012024196D41002116
:10293000013E24184D41002E06D0AB42EED9013E97
:1029400024196D41002EF8D10098019953460019C1
:102950006941002B23DB2B005246D3402A006446FA
:10296000E2401C0053461500002B2DDB2600574685
:10297000BE40330026006746BE403200801A9941AF
:1029800000900191ACE7624620239B1A4A46DA4048
:102990006146130042468A4017001F4380E76246A3
:1029A00020239B1A2A0066469A402300F3401343D3
:1029B000D4E76246202300219B1A00220091019255
:1029C0000122DA40019280E72023624626009B1A0A
:1029D000DE402F00B0466646B74046463B003343D4
:1029E000C8E7C046F0B55746DE464E464546E0B518
:1029F000834607000E03480085B092461C00360B44
:102A0000400DCD0F002800D19DE0954B984239D064
:102A10008023F6001B041E43924A7B0F33439946E2
:102A2000944603006344009300230026FF000293B2
:102A300023031B0B98466300E40F52465B0D019481
:102A400000D1B3E086498B4200D19EE04246D100DE
:102A5000802212040A435146490F11438B46814993
:102A600052468C4600996344CB1A0021D200009351
:102A70002B0063409A460F2E00D905E17A4BB60031
:102A80009B599F465B463343994600D0B8E00223EA
:102A90000826002700900293CAE7CB463A00029925
:102AA0000195019B9A46022927D0032900D180E293
:102AB000012944D06D49009B8C4663441C00002CC6
:102AC00038DD530700D013E2D2085B46DB0109D59D
:102AD0005946674B19408B468021C9008C46009BA4
:102AE00063441C00634B9C4207DC5B4664055F0744
:102AF0005B0217431B0B620D02E000230027584ABC
:102B000000211B031C0B0B0D1B05234314055A4A04
:102B1000380013401C4353466400DB0764081C4321
:102B2000210005B03CBC90469946A246AB46F0BD9C
:102B30000122524201231B1B382B00DCADE1002295
:102B400000230027DCE75B46334399465ED0002E26
:102B500000D18AE1300000F007FF03000B3B1C2B83
:102B600000DD7BE11D22D31A5A460100DA40083904
:102B70008E4013005F46334399468F403F4B0026FB
:102B80001B1A00930023029352E7414653460B431E
:102B90003B499B468C46009B634400935B46002B5D
:102BA0003BD1022300221E43022161E74346134327
:102BB0009B4637D04346002B00D162E1404600F0EF
:102BC000D3FE03000B3B1C2B00DD53E1020041460A
:102BD000083A914088461D21CB1A5146D9400B0036
:102BE00041460B439B46534693401A00009B2549A0
:102BF0009C46604403008C4663440093002137E701
:102C00000323B14600900C26029311E700230093A2
:102C100001330426002702930AE70323C3461E4319
:102C2000032125E701331E430022012120E7002371
:102C30009A46802300271B03094A61E780234946FF
:102C40001B03194200D1E2E05946194200D0DEE0F0
:102C50000B431B0317001B0BA246014A50E7C0465B
:102C6000FF07000001FCFFFFBC390010FF0300005C
:102C7000FFFFFFFEFE070000FFFF0F800DFCFFFFC0
:102C800001F8FFFFF3030000D94500D9CBE000D1E4
:102C9000C6E03C0048460027009B013B00935B4692
:102CA000160E1B021E431302984633041B0C994652
:102CB000310C0191FFF728FD4A4642430B04210CD9
:102CC000050019438A4207D98919013D8E4203D86C
:102CD0008A4201D9851E8919881A0199FFF714FDC6
:102CE00009048C464A46210464464243090C030009
:102CF00021438A4204D98919013B8E4200D8F1E070
:102D00002D041D43AB464346891A4246280C120443
:102D10001D0C5B46140C22001B041B0C5A4303942D
:102D20006B434443029568431B19150CEB189C42F6
:102D300003D980246402A44660441C0C15041B04BF
:102D40002D0C20185D19814277D373D00C1AA24A3A
:102D50007D1BAF42BF419446009B7F426344E01B12
:102D60001C00864200D1DBE00199FFF7CDFC4A460A
:102D700042430B04290C070019438A4207D98919D9
:102D8000013F8E4203D88A4201D9871E8919881AC9
:102D90000199FFF7B9FC09044A46894629044D46C2
:102DA0004243090C030029438A4207D98919013B90
:102DB0008E4203D88A4201D9831E89193F04891A99
:102DC0003A00039F1A43380013041B0C58438146F2
:102DD0000298150C6F43434345434846000C844614
:102DE000DB1963449F4203D9802040028446654436
:102DF00048461F0C00041B04000C7D191818A9423A
:102E000000D284E000D17FE001231A4357E68023FB
:102E10004A461B0313431B031B0BAA466F4A6FE66C
:102E2000BA4200D935E74B46DC0758087B081C43FB
:102E3000FF0734E70024AF4289D247444745A44105
:102E40005B466442A4196418013BA6421ED2A0420C
:102E50006DD800D1B6E0241A9B4678E703005A46A5
:102E6000283B9A400027914688E6584600F07CFDB2
:102E7000203072E603005246283B9A4093460022D7
:102E8000B4E6504600F070FD20309AE6A642E2D14A
:102E9000B845DCD9341A9B4659E71F2B65DC504CEA
:102EA0000099A4465C46614408008C4011008240B1
:102EB000D940501E82410C4314435A46DA40130055
:102EC000620709D00F222240042A05D02200141DD7
:102ED0009442894149425B181A0262D501220023BB
:102EE00000270DE68A4200D80AE7831E891907E702
:102EF0000F231340042B00D1E6E5171D97429241A2
:102F000053429B44FA08E0E5002800D1D7E5711848
:102F1000531EB14227D3A94215D358D01A0073E7E4
:102F2000002B00DC04E6012300229B44CDE50223B4
:102F30004744474589415B429C46494289190C19DF
:102F4000E344241A03E743465F0047459B41B846E4
:102F50005B429E19023A8919A94200D054E74045C4
:102F600000D051E7ABE51A00F6E71F215F46494262
:102F70000C1BE740202B07D01A49009B8C4663446A
:102F800018005B4683401A43501E82413A4307278C
:102F90000023174009D00F210023114014000429F9
:102FA00095D122005F075B021B0BD208174300225A
:102FB000A6E5802359461B030B431B0317001B0B7D
:102FC000064A9DE5BD42B2D89B460024BFE6804537
:102FD000B9D31A00C3E7C046FF030000FF07000093
:102FE0001E0400003E040000F0B54F464646D6469B
:102FF0008446C0B58046194E18030F034D00000BE0
:103000005C0082463F0B6D0DC90F9146640DDB0FCE
:103010000120B5420AD0B44203D0A54201D15745A0
:103020000CD01CBC90469946A246F0BD66463E4375
:10303000F7D1AC42F5D154461443F2D10120C84532
:10304000EFD1994207D0002DEBD163461F433800E2
:10305000471EB841E5E70020E3E7C046FF07000050
:10306000F0B54F464646D6464D00C0B50E03C90FD3
:103070008A462C491F035C008046360B6D0D914635
:103080003F0B640DDB0F8D421ED08C4216D0002DFD
:103090001ED130438446002C01D13A4323D06246EE
:1030A000002A1AD09A4529D05146022001390840F9
:1030B00001381CBC90469946A246F0BD3900114328
:1030C000E5D002204042F4E73043FAD1AC420FD0C1
:1030D000002C0FD13A43E7D00CE00122013B93438F
:1030E00018000130E5E763460020002BE1D0DBE764
:1030F0003A43E6D19A45D7D1A542D5DCA54205DBB6
:10310000BE42D1D808D00020BE42D2D250460123C0
:10311000013898430130CCE7C845C5D80020C845E0
:10312000F4D3C6E7FF070000F0B54F464646D64643
:103130004D00C0B50E03C90F8A462E491F035C001F
:103140008046360B6D0D91463F0B640DDB0F8D42B3
:1031500018D08C4211D0002D18D130438446002C59
:103160001ED13A431CD163460020002B30D051467B
:1031700002200139084001382AE039001143EAD021
:10318000022025E03043FBD1AC4226D0002C26D1D2
:103190003A4324D15146022001390840013817E052
:1031A0006246002A0FD09A45E1D1A54205DBBE4216
:1031B000DDD819D00020BE420AD250460123013882
:1031C0009843013004E00122013B93431800013091
:1031D0001CBC90469946A246F0BD3A43D0D19A45D0
:1031E000C5D1A542C3DCE0E7C845C0D80020C8452A
:1031F000E3D3EDE7FF070000F8B557464E464546D6
:10320000DE460C000903E0B5490A460F5F00314372
:103210001E03DB0F760A9B46530F3343C84E6500EF
:10322000C000E40FD2006D0DA24681467F0D9C4682
:103230009046B74200D1B9E05B46012673409B46F9
:10324000EE1BA34500D183E0002E63DD002F00D0EC
:10325000B1E06346134300D123E1731E002B00D07D
:10326000BAE1861A6346B04280410125C91A40423C
:10327000091A0B0200D447E149024B0A984643461B
:10328000002B00D189E1404600F06EFB0300083BB3
:103290001F2B00DD7CE120223000D21A4146D040B5
:1032A000994002009E400A439D4200DD6AE15D1B99
:1032B0006B1C1F2B00DD94E1202110003500C91A82
:1032C0008E40DA408840DD40711E8E411100072299
:1032D0002843002506433240002A09D00F233340FB
:1032E000042B05D0331DB342B641764289191E0026
:1032F0000B0200D43DE26A1C914B55056D0D9A42BC
:1033000000D119E18F4AF6080A40570752023743A5
:10331000120B9BE0002E00D0C5E06E1C7605760DEA
:10332000012E00DC48E16746861ACB1BB042BF4144
:103330007F42B8461F004346FF1A3B00B8461B02B7
:1033400000D55FE137439AD100220024002579E0BF
:10335000002E00DCFAE0002F00D18DE0784B9D427A
:1033600067D0802367461B041F43BC46382E00DC11
:1033700052E1634613435A1E93411E188642804110
:10338000404209180B0200D4BEE06D4B01359D424E
:1033900000D1D2E06B4A73080A4001210E401E435F
:1033A0005108D30707221E43324095E71E001643FB
:1033B00000D045E740E7624B9D423AD08023674604
:1033C0001B041F43BC46382E00DDEBE01F2E00DC43
:1033D0003AE133006746203BDF403B00202E05D01A
:1033E0004027BF1B6646BE40324390464646721E8B
:1033F00096413343DAE0002B00D114E263461343D5
:1034000000D168E180234E07C008C9081B030643AA
:10341000194208D06046C008184204D16346010032
:10342000D2085E071643F3009946C900720F444D57
:1034300011434B46DE08424B4F073743CA089D42B3
:1034400000D16EE012036D05120B6D0D0021120309
:10345000130B0A0D12051A433B4B2D0513402B434A
:103460005B00E4075B082343380019003CBC90462E
:103470009946A246AB46F8BD6346134311D0731E6E
:10348000002B00D007E1861886428041614440420B
:10349000091801250B0237D502257BE73E0061465E
:1034A00091463500C5E75C46002D00D0E1E00B00F9
:1034B0000343F3D0731C00D1ACE1214B9F4200D1F8
:1034C0003AE1F343382B00DD6FE11F2B00DD8CE187
:1034D00020250E00ED1AAE40B0460600AA46DE409A
:1034E000454635432E005546D940A8406346451E03
:1034F000A8415B1A9C463043161AB2429241634679
:103500005242991A3D00B4E607223240002A00D008
:10351000E4E60B4BF6084F073743CA089D4200D03C
:1035200090E73B00134300D1A6E180231B031A431D
:103530001203120B024D89E715000022002785E7D0
:10354000FF070000FFFF7FFFFFFF0F80002E00D06E
:10355000C7E06B1C5E05760D012E00DCF0E0C84D67
:10356000AB4200D1B9E085180A0085428941624426
:10357000494251180722CE076D082E4349083240B0
:103580001D00A9E6BF49ED1A114007223240A3E60B
:10359000320028388240002686E6300000F0E4F948
:1035A000203073E6634613435A1E9341C61AB04255
:1035B00080414042091A5CE60E0067460643174305
:1035C000002D5ED1002E00D0F3E0002F00D11EE1CF
:1035D0005C46614691462CE7A94FBE427BD01E0057
:1035E000F1E610001F3DE840202B03D04021CB1A0C
:1035F0009A401643731E9E41072206433240002123
:10360000002583E7161A6346B2428041591A4042A8
:103610000B1A98465C4632E61F2E00DDABE02027F1
:10362000BB1B9A4663465746BB40994613004F461C
:10363000F3401F433B005746BA40571EBA4113435D
:103640006246F240891898E62027BB1B9A466346DB
:103650005746BB40994613004F46F3401F433B007B
:103660005746BA40571EBA4113436246F240891A80
:103670009CE7834B9F425FD080252D0473422943F2
:1036800020E7002E0CD1002F00D1D0E05C4661462F
:1036900091467B4DCDE67A4FBE421CD01E0065E6BA
:1036A000002F18D0C0084E0706438020C908000329
:1036B000014208D06346DC08044204D12100DA4606
:1036C000D2085E071643F300994601245346C90009
:1036D000720F11431C406A4DABE61D00002200270B
:1036E000B4E6002D59D10B00034300D1D6E6731C7C
:1036F00000D1B2E0624B9F421ED0F343382B6FDC07
:103700001F2B00DD97E020250E00ED1AAE40B046DD
:103710000600AA46DE40454635432E005546A840E1
:10372000D940451EA8418C440643B61896429241A2
:10373000514261443D0025E63D006146914678E6F0
:103740000B000343002D00D055E6002BF5D0634657
:10375000134300D16DE686188642804161444042A1
:10376000091800220B0200D4D0E6464B013519405F
:10377000B2E5B1465DE633006746203BDF403B00E3
:10378000202E05D04027BF1B6646BE4032439046E0
:103790004646721E96413343EFE5394B9F42CBD0EC
:1037A00080252D0473422943A8E70843411E884120
:1037B000A2E6002F00D13CE66346861ACF1AB0423B
:1037C0009B415B42FB1A98461B024ED5161A634674
:1037D000B2429241591A5242891A5C4600227BE554
:1037E00001430E00711E8E419FE71D000E00203D1B
:1037F000EE40B046202B04D04025EB1A99400843F8
:10380000814648464346411E8841184374E60022DB
:10381000002417E6161A6346B2429241591A5242E0
:10382000891A3D0025E561469146154D01E6802245
:103830000024120379E61D000E00203DEE40B04644
:10384000202B04D04025EB1A9940084381464E4670
:103850004346711E8E411E4367E7861896429B4180
:1038600061445B42C9183D008CE547463743CED0E2
:1038700007224146324049E600273A00E6E5C046C5
:10388000FF070000FFFF7FFF30B5144D0A034B0018
:10389000120B5B0DC90F0024AB4211DD104CA3428B
:1038A00010DC8024640322430E4CE41A1F2C0CDD30
:1038B0000D48C31ADA4013005C42002900D11C00F5
:1038C000200030BD094BCC18FAE7094DE040AC466A
:1038D00063449A4013000343EEE7C046FE03000032
:1038E0001D0400003304000013040000FFFFFF7FED
:1038F000EDFBFFFF70B500282DD0C317C5185D4044
:10390000C40F280000F030F8154B1B1A5B055B0D47
:103910000A2815DD0B38854000222D032D0B0021D0
:1039200010002D030A0D2D0B12052A430D4D1B050A
:103930002A4013435B00E4075B082343190070BD72
:1039400002002900153291400A000B21081AC540D7
:103950002D032D0BE3E70024002300250022DEE7E2
:103960001E040000FFFF0F801C2101231B0498424E
:1039700001D3000C10391B0A984201D3000A083900
:103980001B09984201D30009043902A2105C4018B7
:103990007047C0460403020201010101000000005B
:1039A0000000000010B5002903D1FFF7DDFF203033
:1039B00002E0081CFFF7D8FF10BDC046882C00109D
:1039C000FA2A00103E2B0010A22A00103E2B0010F5
:1039D0002E2C00103E2B0010A22A0010FA2A0010F4
:1039E000FA2A00102E2C0010A22A00109A2A001089
:1039F0009A2A00109A2A00103C2C0010F0B50500FD
:103A00000C00002A12D006000E43F3070FD5012741
:103A100005E00E001E430C001D00374208D0611C5B
:103A20002478013A6B1C2C70002AF2D1F0BD0300FF
:103A3000012A34D9B4072FD502275B1A5D188C1CD4
:103A40000988023A2980AE1C2100012A2BD92500C1
:103A500035432F42F2D1032A10D92100171FBF0886
:103A6000231DBF00FF18331B5D180C1D09682E1D98
:103A700029602100A742F7D103231A40531E002AD0
:103A8000D4D022783270002BD0D062787270012BA3
:103A9000CCD0A378B370C9E70C001E00DBE701228D
:103AA0000C001E00EAE73300FAE7C046F0B55746BF
:103AB0004E46DE4645468A46E0B50400CEB2002AB0
:103AC0000BD083070FD0032502E01C001D420BD052
:103AD000013A631C2670002AF7D13CBC90469946F7
:103AE000A246AB46F0BD0300032A30D95146FF255C
:103AF0000D40A9460D06494629438B465146090407
:103B00008A46FF21A846554609040D4029005D4616
:103B10000D434146141FA408A700A446090C1C1D10
:103B20003F190D4300E004341D6021002300A7422B
:103B3000F9D16346541F9B00E41A9307CDD00E7051
:103B4000002CCAD04E70012CC7D08E70C5E7541E11
:103B50001900F4E70300002030B5013A08D31D78BE
:103B60000C78A54205D0002803D1281B013AF6D2D3
:103B700030BD01330131F0E7F0B5C646040000B5B1
:103B8000884681421FD210188E1805003300002A83
:103B900015D037000743F90718D501239C4607E0E5
:103BA0001F0060462F43384210D0434610199E181C
:103BB000731E451E1878013A2870002AF0D12000A3
:103BC00004BC9046F0BDFFF719FFF8E7012A39D988
:103BD000B90735D50227981AAD1A8318023BA918E0
:103BE0001E880239023A0E80012A30D91E000E4387
:103BF0003742F2D1032A27D9151FAD08181FAD008F
:103C0000451BCE1A181FF318191F03680B60030019
:103C10008542F7D103231A40551E002ACFD0431EF8
:103C20001A784B1E1A70002DC9D0831E1A788B1E6D
:103C30001A70012DC3D00338037803390B70BEE727
:103C40002900D7E701222900551E1800E5E70D00DD
:103C5000F9E7C04604DF70470FDF70470EDF70479B
:103C600000B585B00293079B0191039301A9069BC0
:103C7000FFF7F2FF05B000BD10DF704709DF7047A6
:103C800011DF704713DF704715DF704716DF70478D
:103C900019DF70470FB4F0B55746DE464E4645462D
:103CA000E0B595B01EAE08CE00249A4600235746D4
:103CB0009B4607960B933B78002B12D07A1C9046BC
:103CC000252B20D00BAD621C2C190B9223711F2ABF
:103CD00024D8012347469C463B78E3441400002B3C
:103CE000ECD1002C04D021000CA807F049FB834440
:103CF000584615B03CBC90469946A246AB46F0BC2F
:103D000008BC04B018477B78253BDBB2532B01D9A4
:103D100000F09EFC854A9B00D3589F46002320213B
:103D20000CA80B9307F02CFB0B9AD2E70023804AD8
:103D30000BAD984691462A004546B04616003033F2
:103D4000621C3419326023711F2A0BD84B4601358F
:103D50005B5D002B12D01400621C34193260237199
:103D60001F2AF3D9002320210CA8336007F008FB99
:103D70004B4601355B5D3268002BECD13300464683
:103D8000A8461D00331D019308AB924600210C226A
:103D9000180034689946FFF789FE0F231A00494638
:103DA00064482240825CC3440A700392524698469B
:103DB00021090132002901D100F0D7FD4E461940FA
:103DC000415C7170260A01D100F010FE1E404B4686
:103DD000865D9E70230B01D100F031FE1900434631
:103DE00019404B46415CD970230C01D100F04BFEC9
:103DF0001E0043461E404B46865D1E71230D01D1B9
:103E000000F04AFE1900434619404B46415C597187
:103E1000230E01D100F076FE46461E404B46865DDD
:103E2000240F9E7101D100F090FE015DD97106232F
:103E30000293023398465346EB182A6019711F2AE1
:103E400001D900F06BFD541CAA182C6016711F2CB0
:103E500001D900F0A6FC029B002B01D100F05CFC14
:103E60004346DE1E4B469A5D631C2C192B60227163
:103E70001F2B01D900F014FD002E01D100F078FCB9
:103E80004246161F4A46925D5C1CEB182C601A7164
:103E90001F2C01D900F02FFD002E01D100F092FC63
:103EA00043465E1F4B469A5D631C2C192B602271A2
:103EB0001F2B01D900F071FD002E01D100F00AFD89
:103EC0004246961F4A46925D5C1CEB182C601A71A4
:103ED0001F2C06D9002320210CA82B6007F050FAD4
:103EE0002C68002E01D100F017FD46464B46073ED8
:103EF0009A5D631C2C192B6022711F2B01D900F0D5
:103F000077FC002E01D100F05AFD039A5C1CEB18DF
:103F10002C601A7108261F2C00D80FE200232021E4
:103F20000CA82B6007F02CFA2C6807E2D84B001085
:103F3000484D0010284D0010331D029308AB1800A7
:103F400036680C2200219946FFF7B0FD631C9A46A3
:103F5000002E00DAA6E30023B046012603930BAD42
:103F60000A214046FEF7D0FB4A463031CBB21370EF
:103F70000A2140460593FEF741FB002801D100F0DD
:103F8000E9FC0A21FEF7C0FB4B463031CEB25E7031
:103F900064214046FEF732FB002801D100F017FDF6
:103FA0000A21FEF7B1FB3031CBB24A46FA219370B9
:103FB000890040460193FEF721FB002801D100F063
:103FC0002DFD0A21FEF7A0FB4B463031CEB2DE704C
:103FD000E4494046FEF712FB002801D100F049FDFC
:103FE0000A21FEF791FB4A463031CBB21371DE490C
:103FF00040460193FEF702FB002801D100F055FD79
:104000000A21FEF781FB4B463031CEB25E71D749B3
:104010004046FEF7F3FA002801D100F05BFD0A21CB
:10402000FEF772FB4A463031CBB29371D04940461D
:104030000193FEF7E3FA002801D100F075FD0A2193
:10404000FEF762FB4B463031CEB2DE71C9494046C5
:10405000FEF7D4FA002801D100F091FD0A21FEF705
:1040600053FB4A463031CBB21372C34940460193E9
:10407000FEF7C4FA002801D100F0A0FD4B46303015
:10408000C6B25E72082304930233984653462C1935
:104090002B6026711F2B01D900F052FC5346019A68
:1040A0005C1CEB182C601A711F2C00D971E3049B67
:1040B000002B01D100F0CCFC4346DE1E4B469A5D3E
:1040C000631C2C192B6022711F2B00D9F1E3002EE9
:1040D00001D100F0C9FC4246161F4A46925D5C1CA5
:1040E000EB182C601A711F2C01D900F0FBFB002E7D
:1040F00001D100F0E3FC43465E1F4B469A5D631C12
:104100002C192B6022711F2B01D900F04FFC002EBF
:1041100001D100F0FDFC4246961F4A46925D5C1CB0
:10412000EB182C601A711F2C06D9002320210CA833
:104130002B6007F025F92C68002E01D100F0EDFC72
:104140004346DE1F4B469A5D631C2C192B6022717F
:104150001F2B00D955E3002E01D100F016FD464675
:104160004A46083E925D5C1CEB182C601A711F2CAD
:1041700000D966E3002E01D100F029FD46464B46EA
:10418000093E9A5D631C2C192B6022711F2B00D9EC
:104190005FE3002E00D16CE3059A5C1CEB182C60E9
:1041A0001A711F2C01D900F09BFC039E0A36B34400
:1041B0000237029E7FE5331D32780BAD9846631CB3
:1041C0002C190B9322711F2B00D97DE201229446FA
:1041D0001C00E344464602376DE5331D019308ABEE
:1041E00000210C22180035689946FFF75FFC6349EF
:1041F0000F231A002A408A5C984692464A46504647
:1042000010702809621C002800D19FE24E46184019
:10421000085C70702E0A00D1ADE21E404B468E5DE8
:104220009E702B0B00D12BE31800434618404B46E1
:10423000085CD8702B0C00D14FE31E0043461E4093
:104240004B468E5D1E712B0D00D1BDE2180043461A
:1042500018404B46085C58712B0E00D1B2E346461D
:104260001E404B468E5D2D0F9E7100D1CEE3485D02
:10427000D87106230293023398460BAD2C190B928A
:1042800020711F2A00D959E2541CAA182C601671FB
:104290001F2C00D928E2029B002B00D13CE24346B0
:1042A000DE1E4B469A5D631C2C192B6022711F2B5E
:1042B00000D921E2002E00D15AE24246161F4A469A
:1042C000925D5C1CEB182C601A711F2C00D91BE24C
:1042D000002E00D176E243465E1F4B469A5D631C7A
:1042E0002C192B6022711F2B00D939E2002E00D12E
:1042F000F0E24246961F4A46925D5C1CEB182C6029
:104300001A711F2C00D93CE2002E00D104E346466E
:104310004B46073E9A5D631C2C192B6022711F2BA4
:1043200000D9B5E2002E00D149E352465C1CEB18DF
:104330002C601A7108261F2C00D9EFE5B344023710
:10434000019EB8E425220BAD631C2C190B9322713E
:104350001F2B00D9C0E1012294461C00E344023720
:10436000A9E4C04610270000A086010040420F00CB
:104370008096980000E1F50500CA9A3B384D001080
:10438000331D019308AB00210C22180035689946B3
:10439000FFF78CFBE1492BE7331D029308AB9946ED
:1043A00035680C2218000021FFF780FB0A21280045
:1043B000FEF7AAF94A463031CBB213700A21280021
:1043C0000493FEF71BF9631C9A46002800D103E210
:1043D0000A21FEF799F94B463031CEB25E70642166
:1043E0002800FEF70BF9002800D1F8E20A21FEF7B9
:1043F0008BF93031CBB29846FA214B4642468900C0
:104400009A702800FEF7FAF8002800D10FE30A217D
:10441000FEF77AF94B463031CEB2DE70C049280043
:10442000FEF7ECF8002800D119E30A21FEF76CF939
:104430003031CBB298464B464246BA491A712800F1
:10444000FEF7DCF8002800D13CE30A21FEF75CF916
:104450004B463031CEB25E71B3492800FEF7CEF83C
:10446000002800D149E30A21FEF74EF93031CBB2E2
:1044700098464B464246AD499A712800FEF7BEF871
:10448000002800D159E30A21FEF73EF94B463031AE
:10449000CEB2DE71A6492800FEF7B0F8002800D1A0
:1044A00078E30A21FEF730F93031CBB298464B461B
:1044B0004246A0491A722800FEF7A0F8002800D151
:1044C00071E34B463030C6B25E7208230393023369
:1044D000019353460BAD2C190B9326711F2B00D95A
:1044E00025E2534642465C1CEB182C601A711F2CC7
:1044F00000D95FE1039B002B00D1ADE2019BDE1EE2
:104500004B469A5D631C2C192B6022711F2B00D91E
:10451000D8E1002E00D1B2E2019A5C1C161F4A4677
:10452000925DEB182C601A711F2C00D9ECE1002E63
:1045300000D1AEE2019B5E1F4B469A5D631C2C19B5
:104540002B6022711F2B00D91FE2002E00D1D0E278
:10455000019A5C1C961F4A46925DEB182C601A71FA
:104560001F2C06D9002320210CA82B6006F008FF81
:104570002C68002E00D1D4E2019BDE1F4B469A5DD1
:10458000631C2C192B6022711F2B00D941E1002ED6
:1045900000D104E34A46019E5C1C083E925DEB1884
:1045A0002C601A711F2C00D943E1002E00D102E3C8
:1045B0004B46019E093E9A5D631C2C192B602271AB
:1045C0001F2B00D94DE1002E00D156E1049A5C1C4E
:1045D000EB182C601A710A261F2C00D8E7E500237F
:1045E00020210CA82B6006F0CBFE2C68DFE5331DE4
:1045F000994633681A789846002A25D000239A46AF
:104600003B000BAD47469846631C2C1900262B60D7
:1046100022711F2B0AD80136BA5D002A11D01C0066
:10462000631C2C192B6022711F2BF4D953462021B7
:104630000CA801362B6006F0A3FEBA5D2B68002A99
:10464000EDD147461C00B3444E460237FFF733FB1B
:10465000394B5B22994600230BAD9A46631C2C19FB
:1046600000272B6022711F2B0BD84A460137D25DE1
:10467000002A12D01C00631C2C192B6022711F2BE6
:10468000F3D9534620210CA82B6006F079FE4A4648
:104690000137D25D2B68002AECD1BB441C00474691
:1046A000FFF709FB0B932D230BAD2C1923715346F8
:1046B0001F2B00D9A1E17342984601239C46544622
:1046C0000226E24403934BE4002320210CA80B9321
:1046D00006F056FE0B9B79E5002320210CA80B93D6
:1046E00006F04EFE0B9B36E6002320210CA82B6023
:1046F00006F046FE2C68CEE5002320210CA82B6096
:1047000006F03EFE2B68D5E5002320210CA82B6087
:1047100006F036FE2C68DBE502260FE6284D001079
:1047200010270000A086010040420F0080969800EC
:1047300000E1F50500CA9A3B4C4D001000232021F2
:104740000CA80B9306F01CFE0B9A9DE553460BAD8F
:104750002C190B9223711F2A63D814000126EDE552
:10476000002320210CA82B6006F00AFE2B68BDE573
:104770001C000326E2E500230293023356469846C6
:104780007BE5002320210CA82B6006F0F9FD2C68A6
:10479000BAE5002320210CA82B6006F0F1FD2C685F
:1047A00085E4002320210CA82B6006F0E9FD2C688D
:1047B000FFF751FB002320210CA82B6006F0E0FD41
:1047C0002C6897E60426B9E5030030001E00032399
:1047D00002930233984650E50BAD0B93049B2C19C2
:1047E000237153461F2B00D9C0E154460126DEE455
:1047F000002320210CA82B6006F0C2FD2B68FFF7D8
:1048000080FB002320210CA82B6006F0B9FD2B684B
:10481000A1E4002320210CA82B6006F0B1FD2B6839
:10482000B5E60B9020210CA806F0AAFD01260B9CF2
:1048300084E5002320210CA82B6006F0A1FD2C6844
:10484000B3E6002320210CA82B6006F099FD2C680C
:1048500090E4002320210CA82B6006F091FD2B682A
:1048600097E4002320210CA82B6006F089FD2B681B
:10487000A9E6039E1C00093699E41C00092696E46B
:10488000030030001E000123029302339846F4E433
:10489000002320210CA82B6006F072FD2B6841E557
:1048A000002320210CA82B6006F06AFD2B68FFF77F
:1048B000E3FA002320210CA82B6006F061FD2B6891
:1048C000FFF705FC002320210CA82B6006F058FD03
:1048D0002B681EE61C00052630E5022302930233F6
:1048E0009846CAE4002320210CA82B6006F048FD5E
:1048F0002C68FFF7FCFB002320210CA82B6006F09E
:104900003FFD2C68FFF7C8FA002320210CA82B607C
:1049100006F036FD2C680AE606260FE50023202166
:104920000CA82B6006F02CFD2A68FFF78CFA0023F8
:1049300020210CA80B9306F023FD0B9B9A46D0E593
:10494000002320210CA82B6006F01AFD2B689A4644
:10495000FFF7A4FB53462B60059B2C19237153468C
:104960001F2B00D9FAE0544621E453460398EB1874
:104970002A6018711F2A00D8EFE629600CA82021B0
:1049800006F0FEFC01262C68D8E4002320210CA8A8
:104990002B6006F0F5FC2B68D7E5002320210CA83E
:1049A0002B6006F0EDFC2B68FFF786FA0023202130
:1049B0000CA82B6006F0E4FC2B68FFF7A8FB1C009A
:1049C0000726BBE4042302930233984655E4059B73
:1049D00001930023049302339846FFF757FB049B8F
:1049E0009846002303930233019372E50023029358
:1049F0000233039E9846FFF71EFA002320210CA8DD
:104A00000B9306F0BDFC0B9B9A4654E60300300066
:104A10001E0005230293023398462EE43300019EC4
:104A200001930123049302339846FFF72FFB3300D1
:104A300046469846012303930233019349E50B0050
:104A400031001E000123029302339846FFF7F3F969
:104A5000039E0236FFF7ABFB0226FFF7A8FB0223FB
:104A600003930233019334E5039E1C000336FFF7E2
:104A70009EFB0223049302339846FFF707FB1C00BA
:104A80000326FFF794FB0223029302339846FFF7B5
:104A9000D2F90426FFF78BFB0B0031001E00032325
:104AA000029302339846FFF7C6F93300019E019343
:104AB0000323049302339846FFF7E8FA039E043673
:104AC000FFF775FB330046469846032303930233F2
:104AD0000193FEE40423049302339846FFF7D6FAC9
:104AE000002320210CA82B6006F04AFC2C68FFF75D
:104AF0005CFB1C000526FFF75AFB042303930233DB
:104B00000193E6E40423029302339846FFF793F9F6
:104B1000039E1C000536FFF74AFB039E0636FFF78F
:104B200046FB0626FFF743FB3300019E0193052356
:104B3000049302339846FFF7A9FA33004646984695
:104B40000523039302330193C3E40B0031001E00DD
:104B50000523029302339846FFF76DF92860202160
:104B60000CA806F00DFC2C68FFF721FB0B90202110
:104B70000CA806F005FC01260B9CFFF718FB06238A
:104B8000049302339846FFF781FA039E1C00073610
:104B9000FFF70DFB062303930233019399E41C00F6
:104BA0000726FFF704FB3300464698460723039386
:104BB000023301938DE40826FFF7F9FA3300019ED2
:104BC00001930723049302339846FFF75FFA039E8D
:104BD0000836FFF7ECFAC046444300105046001078
:104BE000504600105046001050460010504600102D
:104BF000504600105046001050460010504600101D
:104C0000504600105046001050460010504600100C
:104C100050460010504600105046001050460010FC
:104C200050460010504600105046001050460010EC
:104C300050460010504600105046001050460010DC
:104C400050460010504600105046001050460010CC
:104C500050460010504600105046001050460010BC
:104C600050460010504600105046001050460010AC
:104C7000504600105046001050460010504600109C
:104C8000504600105046001050460010504600108C
:104C9000504600105046001050460010504600107C
:104CA00050460010DA4100105046001050460010E7
:104CB000504600105046001050460010504600105C
:104CC000504600105046001050460010504600104C
:104CD000B6410010383F00105046001050460010FA
:104CE0005046001050460010383F0010504600104B
:104CF000504600105046001050460010504600101C
:104D0000504600102C3D0010504600105046001038
:104D1000EE45001050460010984300105046001019
:104D2000504600108043001030313233343536376E
:104D30003839616263646566303132333435363711
:104D40003839414243444546307800005B556E7324
:104D50007570706F72746564205461675D00000047
:104D6000F0B5CE46474680B58DB000F00DF900286D
:104D700025D106AB81279846734C08AE7F4280212F
:104D8000012009064042FEF779FF0300C20676D4EF
:104D9000820645D4420614D4020600D59BE080204A
:104DA000400003420CD02100FEF76AFF2568AB1CCF
:104DB00000DAC5E0002D00DBB1E00021A6E0FEE74F
:104DC000FEE721004020FEF75BFF21688B1C00DA24
:104DD000A4E00029F1DB00D0A0E023696068082B83
:104DE00000D0AFE0226A0C2A00D0ABE04246FEF7CA
:104DF00049FF2369984200D0A4E0069A079B0096D9
:104E0000A06800F02BF9051E05D1236A32000021AD
:104E10006068FEF739FF29006068FEF737FFAEE7EC
:104E200021002020FEF72CFF21688B1C00DA88E08F
:104E30000029C2DB00D084E023696068082B69D1B7
:104E40006269042A66D13200FEF71CFF236998428A
:104E500060D1636905AA01216068FEF713FF6369E9
:104E6000984257D143460293236A0193059B0093CE
:104E7000A068089A099B00F0C5F8010046E02100EF
:104E80001020FEF7FDFE21688B1C46DB002994DB19
:104E900043D12369A5686068082B3BD1A269042A25
:104EA00038D13200FEF7EEFE2369984232D1A36971
:104EB000424602216068FEF7E5FEA369984229D1C7
:104EC000069B2800019363690093089A099B00F0F0
:104ED00069F801001AE021008020FEF7D1FE216868
:104EE0008B1C19DB002900DA67E715D1236960689C
:104EF000082B0FD13200FEF7C5FE2369984209D175
:104F0000089A099BA06800F0CDF801006068FEF7E0
:104F1000BDFE34E73900F9E7FEE7FEE7FEE7002DC6
:104F20000ED1236A9946042BF4D100F0E1F8290050
:104F300008904B4632006068FEF7A6FE2900E5E7C0
:104F4000FEE7FEE73D0066E7009C0008074B10B552
:104F500002000C0058680B000121FEF793FE201A96
:104F6000441EA04180234042984310BD009C00088D
:104F700010B50B000349020048680021FEF784FECB
:104F800010BDC046009C000810B500F0B3F8002822
:104F900000D110BD00F0E8F90028FAD100F0AAF81D
:104FA000F7E7C04630B51D00130083B014002B4353
:104FB0001FD00723079A9A431ED10123104A5B4250
:104FC00012196B41002B09D0069B020000932000B0
:104FD000079B290000F0CEF803B030BDFF2AF3D8BC
:104FE000079B22000193069B00932B001BF0BCFE45
:104FF000F2E787204042EFE786204042ECE7C046D8
:1050000000FFFFFF30B51D00130085B014002B43D7
:105010001FD00123104A5B4212196B41002B0BD0A9
:105020000A9B02000193099B200000932900089B22
:1050300000F06EF805B030BDFF2AF1D80A9B2200BF
:105040000293099B0193089B00932B001BF090FE99
:10505000F0E787204042EDE700FFFFFF30B51D007D
:10506000130083B014002B4317D001230C4A5B427A
:1050700012196B41002B07D00200069B200029006B
:1050800000F00CF903B030BDFF2AF5D8069B2200D2
:1050900000932B001BF09AFEF4E787204042F1E7D3
:1050A00000FFFFFF70B51D00130014002B4316D046
:1050B00001230E4A5B4212196B41002B08D00200FB
:1050C0002900200000F012F9030095330AD070BDCA
:1050D000FF2AF4D822002B001BF096FEF7E787206A
:1050E0004042F4E784204042F1E7C04600FFFFFF62
:1050F0000020704710B5044C200000F0FFF9034B6E
:10510000283C5C6010BDC046609C0008309C0008D4
:10511000F8B5154D1E002B0000F052FC041E01D006
:105120002000F8BD114F2868390000F003FF041E6D
:1051300004D1FD69B54208D287246442802200214F
:1051400012013800FEF7B2FCEAE7069BAD1B9D4258
:1051500007D8074829003018FFF70AFF079B1D6092
:10516000ECE71D00F5E7C046309C0008389C0008BD
:10517000609C0008F0B557464E46DE4645469A46C6
:10518000FB23E0B583B091460C9A06000F00DB00CC
:105190009A4269D83E4B4A46984600F011FC041EDC
:1051A00011D003003B4D8C334CD0802200211201E2
:1051B0002800FEF77BFC200003B03CBC90469946DB
:1051C000A246AB46F0BD4346324D1868290000F0B8
:1051D000B1FE041EE9D16B6ADB0742D453466B6211
:1051E0000C9B2B6243461B68019301239B462A4B71
:1051F0000C9918009A46FFF7A9FE041ED5D1282362
:105200005B429C46E24453460C9A41465846DA615A
:1052100000F03EFA041EC8D143465146186800F01B
:10522000C9FE041EC1D143464A463000390000F091
:10523000BDFA041E25D1019B002B18D100F03AFDC8
:105240000400B2E78022002112012800FEF72EFCA4
:105250000C9B2B6253466B6202239B4600230193F7
:10526000C5E785246442A0E787246442A3E700F0F1
:1052700021FD041E99D101980021FDF7FBF80400DF
:1052800093E7434600211868FDF7F4F88DE7C04620
:10529000309C0008389C0008609C0008F8B5114D4F
:1052A0001F002B0000F08CFB041E01D02000F8BD75
:1052B0000D4E2868310000F03DFE041E06D080220D
:1052C000002112013000FEF7F1FBEFE78022F369C5
:1052D00012017B60736A0021BB603000FEF7E6FBC1
:1052E000E4E7C046309C0008389C0008F8B5474603
:1052F000CE461B4D80B52B0006000F00904600F0F7
:105300005FFB041E04D020000CBC90469946F8BDFB
:10531000144B28681900994600F00CFE041E05D1B4
:105320004B465B6ADB0708D5852464428022002156
:1053300012014846FEF7BAFBE5E742463000390065
:1053400000F0ECFB041EF1D12D6800F0B3FC041E4C
:10535000ECD128000021FDF78DF80400E6E7C046F7
:10536000309C0008389C000810B500F0B3F810BD60
:10537000F0B583005E58DBB0B227CA686B460C00FC
:1053800031007F00DA511C313A0005006846FEF713
:1053900035FBB42269465200300000F0A7FD00281A
:1053A00004D10223641923725BB0F0BD2369002B82
:1053B00003D1641901332372F6E76A46D351B4224C
:1053C00069465200300000F091FD431E98410123D0
:1053D00040429843033064192072E5E7F0B5C646B1
:1053E000002300B50020DEB0039300F039FE041E58
:1053F00004D020005EB004BC9046F0BD03A900209C
:1054000000F022FE041EF4D100F060FC041EF0D176
:105410002F4D039C280000F0B5FC10216B46B222F2
:105420005B18290052001C3118009C50FEF7E6FA68
:10543000B42204A95200280000F034FD041E40D11B
:1054400000F088FC041ED4D18223C026FF33EF5C19
:105450007600781C00949846C1172B003200FCF7A8
:105460007FFF041EC5D14246AB5D04A90490012014
:10547000AB54AF55039D00F0E7FD002824D1049BF9
:105480009D4209D9012000F0EBFD041EB1D1049B1F
:10549000013304939D42F5D804A9022000F0D4FD05
:1054A000002811D1049B9D4209D9022000F0D8FDAB
:1054B000041E9ED1049B013304939D42F5D8002421
:1054C00097E700F047FC94E78424644291E7C046E4
:1054D00038A40008C42210B5074C00215200200057
:1054E000FEF7E4FAC02301225B00E2520123237796
:1054F000FFF774FF10BDC04638A400080023F0B5C4
:1055000089B003AC614E23726372E360236102AF22
:1055100081336060FF330197009600220120002153
:105520000396FCF749FF002801D00123237201975D
:10553000636800220093C02302205B000021FCF777
:105540003BFF002801D00123637200F0BFFB051E62
:1055500002D0280009B0F0BD06A9002000F074FDBB
:10556000051E02D000F0F6FBF3E73900012000F041
:105570006BFD051EF6D107A9022000F065FD051E92
:10558000F0D12369029A934200D02061237A012B43
:1055900003D021000020FFF7EBFE637A012B03D03C
:1055A00021000120FFF7E4FE00F0D4FB051ED0D15E
:1055B000039B1B7F012B01D00123237261680B7FAA
:1055C000012B01D00123637202232289FF339A4207
:1055D00058D0237A012B52D0637A012B3FD0022B73
:1055E00040D0C0235B008022022000215200F252F2
:1055F000FCF740FF051E02D003008C33A9D1002325
:1056000039000120E468029300F01EFD002839D122
:10561000029B9C420AD9012000F022FD051E00D009
:1056200097E7029B013302939C42F4D83900022091
:1056300000F00AFD002825D1029B9C420AD90220D5
:1056400000F00EFD051E00D083E7029B013302939C
:105650009C42F4D8300000F08BFB002579E78033C2
:10566000FF33C0E7C02201235200B3523000FEF7DF
:10567000C5F98223FF33F05C0130C117B8E7C022BF
:105680005200F2E784256D4263E7C04638A4000863
:1056900070B50D00002800D183E0434B1A6B596BA5
:1056A0000A4302D1013800285AD01A6D596D0A43B5
:1056B00003D10138002800D163E01A6F596F0A4303
:1056C00002D1013800285ED0190090310A6849687B
:1056D0000A4302D10138002857D01900B0310A68B6
:1056E00049680A4302D10138002850D01900D0314E
:1056F0000A6849680A4302D10138002849D01900D4
:10570000F0310A6849680A4302D10138002842D0C2
:1057100019001131FF310A6849680A4302D1013882
:1057200000283AD019003131FF310A6849680A432C
:1057300002D10138002832D019005131FF310A68F6
:1057400049680A4308D07133FF331A685B681A430B
:1057500013D08E20404270BD01380028F3D10920BB
:10576000C41C20000021FCF785FE002802D00300A5
:105770008C33F0D12C600020EDE70128E9D109300D
:10578000EEE70120ECE70220EAE70320E8E7042047
:10579000E6E70520E4E70620E2E70720E0E7082047
:1057A000DEE787204042D6E738A40008F0B54F4630
:1057B000D6464646C0B58AB0050089461700002186
:1057C000202202A81E00FEF771F97C4C236BAB422D
:1057D00063D0236DAB4200D176E0236FAB4200D1A2
:1057E0007CE0230090331A68AA4200D180E02300B5
:1057F000B0331A68AA4200D185E02300D0331A687A
:10580000AA4200D18AE02300F0331A68AA4200D1EC
:105810008FE023001133FF331A68AA4200D193E0CE
:1058200023003133FF331A68AA4200D198E02300E5
:105830005133FF331A68AA4200D19DE0230071332F
:10584000FF331A68AA4200D1A2E0202398464A46B4
:1058500030687168C31E5B01E3181D63851E6D010E
:1058600065195A639F6310222800FEF7C7F8FFF7F7
:10587000B5FD061E0AD0079A069B0192134300D07D
:1058800094E0202200212800FEF710F930000AB031
:105890001CBC90469946A246F0BD636B4B4598D11F
:1058A000A36B9F4295D10020013043019846A24648
:1058B000C2445146202202A8FEF7A0F8202200216F
:1058C0005046FEF7F3F8C2E7636D4B4500D084E71E
:1058D000A36D9F4200D080E70120E5E7636F4B4551
:1058E00000D07EE7A36F9F4200D07AE70220DBE77B
:1058F0005B684B4500D07AE79823E3589F4200D07D
:1059000075E70320D0E75B684B4500D075E7B82307
:10591000E3589F4200D070E70420C5E75B684B4521
:1059200000D070E7D823E3589F4200D06BE70520F2
:10593000BAE75B684B4500D06BE7F823E3589F421A
:1059400000D066E70620AFE75B684B4500D067E70D
:105950008C235B00E3589F4200D061E70720A3E758
:105960005B684B4500D062E79C235B00E3589F4295
:1059700000D05CE7082097E75B684B4500D05DE707
:10598000AC235B00E3589F4200D057E709208BE728
:105990005B684B4500D058E7BC2320225B00E358EE
:1059A00090460A209F4200D051E77DE72000202248
:1059B000404402A9FEF722F863E7C04638A4000875
:1059C00070B5554C256B854234D0256D854243D04A
:1059D000256F854248D0250090352E6886424BD0F1
:1059E0002500B0352E6886424FD02500D0352E6870
:1059F000864253D02500F0352E68864257D02500C8
:105A00001135FF352E6886425AD025003135FF35D5
:105A10002E6886425ED025005135FF352E688642BD
:105A200062D025007135FF352E68864267D08C2004
:105A3000404270BD656B8D42C7D1A56BAA42C4D1EF
:105A40000021CA1C013149011A60611858681022EE
:105A5000FDF7D4FF0020ECE7656D8D42B8D1A56D50
:105A6000AA42B5D10121ECE7656F8D42B3D1A56F94
:105A7000AA42B0D10221E4E76D688D42B0D19825E9
:105A80006559AA42ACD10321DBE76D688D42ACD1E8
:105A9000B8256559AA42A8D10421D2E76D688D4284
:105AA000A8D1D8256559AA42A4D10521C9E76D68B6
:105AB0008D42A4D1F8256559AA42A0D10621C0E79C
:105AC0006D688D42A1D18C256D006559AA429CD18B
:105AD0000721B6E76D688D429DD19C256D00655903
:105AE000AA4298D10821ACE76D688D4299D1AC25C6
:105AF0006D006559AA4200D093E70921A1E76868C3
:105B0000884200D093E7BC21490061588A4200D006
:105B10008DE70A2195E7C04638A4000830B5644BEC
:105B200089B01C6B84423BD01C6D844256D01C6FE4
:105B300084425BD01C009034256885425ED01C00F6
:105B4000B0342568854262D01C00D0342568854277
:105B500067D01C00F0342568854200D16CE01C0041
:105B60001134FF342568854200D170E01C003134C7
:105B7000FF342568854200D175E01C005134FF34A4
:105B80002568854200D17AE01C007134FF34256815
:105B9000854200D17FE08C256D42280009B030BDE0
:105BA0005C6B8C42C0D19C6BA242BDD100240134FD
:105BB00064011C19202221006846FDF71FFF2022E6
:105BC00000212000FDF772FFFFF708FC051EE4D05E
:105BD000202269462000FDF711FFDEE75C6D8C4254
:105BE000A5D19C6DA242A2D10124E0E75C6F8C425A
:105BF000A0D19C6FA2429DD10224D8E764688C4258
:105C00009DD198241C59A24299D10324CFE76468FE
:105C10008C4299D1B8241C59A24200D094E70424A4
:105C2000C5E764688C4200D093E7D8241C59A2428F
:105C300000D08EE70524BAE764688C4200D08EE776
:105C4000F8241C59A24200D089E70624AFE7646813
:105C50008C4200D08AE78C2464001C59A24200D0F8
:105C600084E70724A3E764688C4200D085E79C247E
:105C700064001C59A24200D07FE7082497E76468BB
:105C80008C4200D080E7AC2464001C59A24200D0B2
:105C90007AE709248BE76068884200D07BE7BC2163
:105CA000490059580A248A4200D074E77FE7C04669
:105CB00038A40008822310B5034AFF33D05C0130BA
:105CC000C117FCF7D7FB10BD38A4000830B589B068
:105CD00002AC002118222000FDF7E8FE002301930A
:105CE000C0239B000593164B1649049390239B01F8
:105CF000A382802301A80693FCF75CFA002801D058
:105D000009B030BD0C23104A104901A8FCF7AAFACB
:105D100000280FD10E4D01A92A002000FCF7D6FA69
:105D2000002807D101A8FCF721F90028E8D028882D
:105D3000FBF77AF801A8FCF719F984204042DFE765
:105D400002104006000F00B0746000100102000055
:105D5000CCA50008054B10B51888FBF765F800289E
:105D600000D110BD84204042FBE7C046CCA500080E
:105D7000010010B510310C220148FDF73FFE10BDA7
:105D8000C0A5000830B5174C85B0082221000500D9
:105D900002A8FDF733FE21000422083101A8FDF717
:105DA0002DFE029803990122002312184B41029202
:105DB00003931A4302D1019B0133019302A90822E4
:105DC0002000FDF71BFE200001A904220830FDF78A
:105DD00015FE28000C2221001030FDF70FFE05B043
:105DE00030BDC046C0A50008F0B51500020089B05E
:105DF000109F06001148119C008805970F9F029381
:105E000004970E9F019500911032069403970C237E
:105E10000B49FBF713FD051E0CD10F9B21689C4617
:105E200010392160102261443000FDF7E7FD2800A1
:105E300009B0F0BD84256D42F9E7C046CCA5000845
:105E400002104006F0B5C6460400904600B588B082
:105E50000E9D0F005819102221001E00FDF7CEFDE7
:105E60000E4B22001888119B10350693109B1032A0
:105E700005930F9B03950493434602960193009765
:105E80000C230749FBF796FD002803D108B004BC9A
:105E90009046F0BD95204042F8E7C046CCA50008EA
:105EA00002104006030030B514008BB002000D480C
:105EB00009AD0088069504931025002300910393F3
:105EC00002931032059501940C330749FBF7B6FC99
:105ED000002804D1099B102B01D10BB030BD8420C8
:105EE0004042FAE7CCA500080210400630B5030096
